{
  "contractName": "TokenB",
  "abi": [
    {
      "inputs": [
        {
          "internalType": "address",
          "name": "underlyingTokenContractAddress",
          "type": "address"
        }
      ],
      "stateMutability": "nonpayable",
      "type": "constructor"
    },
    {
      "anonymous": false,
      "inputs": [
        {
          "indexed": true,
          "internalType": "address",
          "name": "owner",
          "type": "address"
        },
        {
          "indexed": true,
          "internalType": "address",
          "name": "spender",
          "type": "address"
        },
        {
          "indexed": false,
          "internalType": "uint256",
          "name": "value",
          "type": "uint256"
        }
      ],
      "name": "Approval",
      "type": "event"
    },
    {
      "anonymous": false,
      "inputs": [
        {
          "indexed": true,
          "internalType": "address",
          "name": "from",
          "type": "address"
        },
        {
          "indexed": true,
          "internalType": "address",
          "name": "to",
          "type": "address"
        },
        {
          "indexed": false,
          "internalType": "uint256",
          "name": "value",
          "type": "uint256"
        }
      ],
      "name": "Transfer",
      "type": "event"
    },
    {
      "inputs": [
        {
          "internalType": "address",
          "name": "owner",
          "type": "address"
        },
        {
          "internalType": "address",
          "name": "spender",
          "type": "address"
        }
      ],
      "name": "allowance",
      "outputs": [
        {
          "internalType": "uint256",
          "name": "",
          "type": "uint256"
        }
      ],
      "stateMutability": "view",
      "type": "function",
      "constant": true
    },
    {
      "inputs": [
        {
          "internalType": "address",
          "name": "spender",
          "type": "address"
        },
        {
          "internalType": "uint256",
          "name": "amount",
          "type": "uint256"
        }
      ],
      "name": "approve",
      "outputs": [
        {
          "internalType": "bool",
          "name": "",
          "type": "bool"
        }
      ],
      "stateMutability": "nonpayable",
      "type": "function"
    },
    {
      "inputs": [
        {
          "internalType": "address",
          "name": "account",
          "type": "address"
        }
      ],
      "name": "balanceOf",
      "outputs": [
        {
          "internalType": "uint256",
          "name": "",
          "type": "uint256"
        }
      ],
      "stateMutability": "view",
      "type": "function",
      "constant": true
    },
    {
      "inputs": [],
      "name": "decimals",
      "outputs": [
        {
          "internalType": "uint8",
          "name": "",
          "type": "uint8"
        }
      ],
      "stateMutability": "view",
      "type": "function",
      "constant": true
    },
    {
      "inputs": [
        {
          "internalType": "address",
          "name": "spender",
          "type": "address"
        },
        {
          "internalType": "uint256",
          "name": "subtractedValue",
          "type": "uint256"
        }
      ],
      "name": "decreaseAllowance",
      "outputs": [
        {
          "internalType": "bool",
          "name": "",
          "type": "bool"
        }
      ],
      "stateMutability": "nonpayable",
      "type": "function"
    },
    {
      "inputs": [
        {
          "internalType": "address",
          "name": "spender",
          "type": "address"
        },
        {
          "internalType": "uint256",
          "name": "addedValue",
          "type": "uint256"
        }
      ],
      "name": "increaseAllowance",
      "outputs": [
        {
          "internalType": "bool",
          "name": "",
          "type": "bool"
        }
      ],
      "stateMutability": "nonpayable",
      "type": "function"
    },
    {
      "inputs": [],
      "name": "name",
      "outputs": [
        {
          "internalType": "string",
          "name": "",
          "type": "string"
        }
      ],
      "stateMutability": "view",
      "type": "function",
      "constant": true
    },
    {
      "inputs": [],
      "name": "symbol",
      "outputs": [
        {
          "internalType": "string",
          "name": "",
          "type": "string"
        }
      ],
      "stateMutability": "view",
      "type": "function",
      "constant": true
    },
    {
      "inputs": [],
      "name": "totalSupply",
      "outputs": [
        {
          "internalType": "uint256",
          "name": "",
          "type": "uint256"
        }
      ],
      "stateMutability": "view",
      "type": "function",
      "constant": true
    },
    {
      "inputs": [
        {
          "internalType": "address",
          "name": "to",
          "type": "address"
        },
        {
          "internalType": "uint256",
          "name": "amount",
          "type": "uint256"
        }
      ],
      "name": "transfer",
      "outputs": [
        {
          "internalType": "bool",
          "name": "",
          "type": "bool"
        }
      ],
      "stateMutability": "nonpayable",
      "type": "function"
    },
    {
      "inputs": [
        {
          "internalType": "address",
          "name": "from",
          "type": "address"
        },
        {
          "internalType": "address",
          "name": "to",
          "type": "address"
        },
        {
          "internalType": "uint256",
          "name": "amount",
          "type": "uint256"
        }
      ],
      "name": "transferFrom",
      "outputs": [
        {
          "internalType": "bool",
          "name": "",
          "type": "bool"
        }
      ],
      "stateMutability": "nonpayable",
      "type": "function"
    },
    {
      "inputs": [
        {
          "internalType": "uint256",
          "name": "amount",
          "type": "uint256"
        }
      ],
      "name": "requestWrappedToken",
      "outputs": [],
      "stateMutability": "nonpayable",
      "type": "function"
    },
    {
      "inputs": [
        {
          "internalType": "uint256",
          "name": "amount",
          "type": "uint256"
        }
      ],
      "name": "unwrapTokenForUnderlying",
      "outputs": [],
      "stateMutability": "nonpayable",
      "type": "function"
    }
  ],
  "bytecode": "0x60806040523480156200001157600080fd5b50604051620020c6380380620020c6833981810160405281019062000037919062000239565b6040518060400160405280600781526020017f546f6b656e2042000000000000000000000000000000000000000000000000008152506040518060400160405280600381526020017f544b4200000000000000000000000000000000000000000000000000000000008152508160039080519060200190620000bb9291906200011f565b508060049080519060200190620000d49291906200011f565b50505080600560006101000a81548173ffffffffffffffffffffffffffffffffffffffff021916908373ffffffffffffffffffffffffffffffffffffffff16021790555050620002d0565b8280546200012d906200029a565b90600052602060002090601f0160209004810192826200015157600085556200019d565b82601f106200016c57805160ff19168380011785556200019d565b828001600101855582156200019d579182015b828111156200019c5782518255916020019190600101906200017f565b5b509050620001ac9190620001b0565b5090565b5b80821115620001cb576000816000905550600101620001b1565b5090565b600080fd5b600073ffffffffffffffffffffffffffffffffffffffff82169050919050565b60006200020182620001d4565b9050919050565b6200021381620001f4565b81146200021f57600080fd5b50565b600081519050620002338162000208565b92915050565b600060208284031215620002525762000251620001cf565b5b6000620002628482850162000222565b91505092915050565b7f4e487b7100000000000000000000000000000000000000000000000000000000600052602260045260246000fd5b60006002820490506001821680620002b357607f821691505b60208210811415620002ca57620002c96200026b565b5b50919050565b611de680620002e06000396000f3fe608060405234801561001057600080fd5b50600436106100cf5760003560e01c806357ab6f1f1161008c578063a457c2d711610066578063a457c2d714610228578063a9059cbb14610258578063b10fc3ca14610288578063dd62ed3e146102a4576100cf565b806357ab6f1f146101be57806370a08231146101da57806395d89b411461020a576100cf565b806306fdde03146100d4578063095ea7b3146100f257806318160ddd1461012257806323b872dd14610140578063313ce56714610170578063395093511461018e575b600080fd5b6100dc6102d4565b6040516100e9919061124a565b60405180910390f35b61010c60048036038101906101079190611305565b610366565b6040516101199190611360565b60405180910390f35b61012a610389565b604051610137919061138a565b60405180910390f35b61015a600480360381019061015591906113a5565b610393565b6040516101679190611360565b60405180910390f35b6101786103c2565b6040516101859190611414565b60405180910390f35b6101a860048036038101906101a39190611305565b6103cb565b6040516101b59190611360565b60405180910390f35b6101d860048036038101906101d3919061142f565b610475565b005b6101f460048036038101906101ef919061145c565b61061d565b604051610201919061138a565b60405180910390f35b610212610665565b60405161021f919061124a565b60405180910390f35b610242600480360381019061023d9190611305565b6106f7565b60405161024f9190611360565b60405180910390f35b610272600480360381019061026d9190611305565b6107e1565b60405161027f9190611360565b60405180910390f35b6102a2600480360381019061029d919061142f565b610804565b005b6102be60048036038101906102b99190611489565b610909565b6040516102cb919061138a565b60405180910390f35b6060600380546102e3906114f8565b80601f016020809104026020016040519081016040528092919081815260200182805461030f906114f8565b801561035c5780601f106103315761010080835404028352916020019161035c565b820191906000526020600020905b81548152906001019060200180831161033f57829003601f168201915b5050505050905090565b600080610371610990565b905061037e818585610998565b600191505092915050565b6000600254905090565b60008061039e610990565b90506103ab858285610b63565b6103b6858585610bef565b60019150509392505050565b60006012905090565b6000806103d6610990565b905061046a818585600160008673ffffffffffffffffffffffffffffffffffffffff1673ffffffffffffffffffffffffffffffffffffffff16815260200190815260200160002060008973ffffffffffffffffffffffffffffffffffffffff1673ffffffffffffffffffffffffffffffffffffffff168152602001908152602001600020546104659190611559565b610998565b600191505092915050565b60028161048291906115af565b600560009054906101000a900473ffffffffffffffffffffffffffffffffffffffff1673ffffffffffffffffffffffffffffffffffffffff1663dd62ed3e33306040518363ffffffff1660e01b81526004016104df929190611618565b602060405180830381865afa1580156104fc573d6000803e3d6000fd5b505050506040513d601f19601f820116820180604052508101906105209190611656565b1015610561576040517f08c379a0000000000000000000000000000000000000000000000000000000008152600401610558906116cf565b60405180910390fd5b600560009054906101000a900473ffffffffffffffffffffffffffffffffffffffff1673ffffffffffffffffffffffffffffffffffffffff166323b872dd33306002856105ae91906115af565b6040518463ffffffff1660e01b81526004016105cc939291906116ef565b6020604051808303816000875af11580156105eb573d6000803e3d6000fd5b505050506040513d601f19601f8201168201806040525081019061060f9190611752565b5061061a3382610e70565b50565b60008060008373ffffffffffffffffffffffffffffffffffffffff1673ffffffffffffffffffffffffffffffffffffffff168152602001908152602001600020549050919050565b606060048054610674906114f8565b80601f01602080910402602001604051908101604052809291908181526020018280546106a0906114f8565b80156106ed5780601f106106c2576101008083540402835291602001916106ed565b820191906000526020600020905b8154815290600101906020018083116106d057829003601f168201915b5050505050905090565b600080610702610990565b90506000600160008373ffffffffffffffffffffffffffffffffffffffff1673ffffffffffffffffffffffffffffffffffffffff16815260200190815260200160002060008673ffffffffffffffffffffffffffffffffffffffff1673ffffffffffffffffffffffffffffffffffffffff168152602001908152602001600020549050838110156107c8576040517f08c379a00000000000000000000000000000000000000000000000000000000081526004016107bf906117f1565b60405180910390fd5b6107d58286868403610998565b60019250505092915050565b6000806107ec610990565b90506107f9818585610bef565b600191505092915050565b8061080e3361061d565b101561084f576040517f08c379a00000000000000000000000000000000000000000000000000000000081526004016108469061185d565b60405180910390fd5b600560009054906101000a900473ffffffffffffffffffffffffffffffffffffffff1673ffffffffffffffffffffffffffffffffffffffff1663a9059cbb3360028461089b91906115af565b6040518363ffffffff1660e01b81526004016108b892919061187d565b6020604051808303816000875af11580156108d7573d6000803e3d6000fd5b505050506040513d601f19601f820116820180604052508101906108fb9190611752565b506109063382610fd0565b50565b6000600160008473ffffffffffffffffffffffffffffffffffffffff1673ffffffffffffffffffffffffffffffffffffffff16815260200190815260200160002060008373ffffffffffffffffffffffffffffffffffffffff1673ffffffffffffffffffffffffffffffffffffffff16815260200190815260200160002054905092915050565b600033905090565b600073ffffffffffffffffffffffffffffffffffffffff168373ffffffffffffffffffffffffffffffffffffffff161415610a08576040517f08c379a00000000000000000000000000000000000000000000000000000000081526004016109ff90611918565b60405180910390fd5b600073ffffffffffffffffffffffffffffffffffffffff168273ffffffffffffffffffffffffffffffffffffffff161415610a78576040517f08c379a0000000000000000000000000000000000000000000000000000000008152600401610a6f906119aa565b60405180910390fd5b80600160008573ffffffffffffffffffffffffffffffffffffffff1673ffffffffffffffffffffffffffffffffffffffff16815260200190815260200160002060008473ffffffffffffffffffffffffffffffffffffffff1673ffffffffffffffffffffffffffffffffffffffff168152602001908152602001600020819055508173ffffffffffffffffffffffffffffffffffffffff168373ffffffffffffffffffffffffffffffffffffffff167f8c5be1e5ebec7d5bd14f71427d1e84f3dd0314c0f7b2291e5b200ac8c7c3b92583604051610b56919061138a565b60405180910390a3505050565b6000610b6f8484610909565b90507fffffffffffffffffffffffffffffffffffffffffffffffffffffffffffffffff8114610be95781811015610bdb576040517f08c379a0000000000000000000000000000000000000000000000000000000008152600401610bd290611a16565b60405180910390fd5b610be88484848403610998565b5b50505050565b600073ffffffffffffffffffffffffffffffffffffffff168373ffffffffffffffffffffffffffffffffffffffff161415610c5f576040517f08c379a0000000000000000000000000000000000000000000000000000000008152600401610c5690611aa8565b60405180910390fd5b600073ffffffffffffffffffffffffffffffffffffffff168273ffffffffffffffffffffffffffffffffffffffff161415610ccf576040517f08c379a0000000000000000000000000000000000000000000000000000000008152600401610cc690611b3a565b60405180910390fd5b610cda8383836111a7565b60008060008573ffffffffffffffffffffffffffffffffffffffff1673ffffffffffffffffffffffffffffffffffffffff16815260200190815260200160002054905081811015610d60576040517f08c379a0000000000000000000000000000000000000000000000000000000008152600401610d5790611bcc565b60405180910390fd5b8181036000808673ffffffffffffffffffffffffffffffffffffffff1673ffffffffffffffffffffffffffffffffffffffff16815260200190815260200160002081905550816000808573ffffffffffffffffffffffffffffffffffffffff1673ffffffffffffffffffffffffffffffffffffffff1681526020019081526020016000206000828254610df39190611559565b925050819055508273ffffffffffffffffffffffffffffffffffffffff168473ffffffffffffffffffffffffffffffffffffffff167fddf252ad1be2c89b69c2b068fc378daa952ba7f163c4a11628f55a4df523b3ef84604051610e57919061138a565b60405180910390a3610e6a8484846111ac565b50505050565b600073ffffffffffffffffffffffffffffffffffffffff168273ffffffffffffffffffffffffffffffffffffffff161415610ee0576040517f08c379a0000000000000000000000000000000000000000000000000000000008152600401610ed790611c38565b60405180910390fd5b610eec600083836111a7565b8060026000828254610efe9190611559565b92505081905550806000808473ffffffffffffffffffffffffffffffffffffffff1673ffffffffffffffffffffffffffffffffffffffff1681526020019081526020016000206000828254610f539190611559565b925050819055508173ffffffffffffffffffffffffffffffffffffffff16600073ffffffffffffffffffffffffffffffffffffffff167fddf252ad1be2c89b69c2b068fc378daa952ba7f163c4a11628f55a4df523b3ef83604051610fb8919061138a565b60405180910390a3610fcc600083836111ac565b5050565b600073ffffffffffffffffffffffffffffffffffffffff168273ffffffffffffffffffffffffffffffffffffffff161415611040576040517f08c379a000000000000000000000000000000000000000000000000000000000815260040161103790611cca565b60405180910390fd5b61104c826000836111a7565b60008060008473ffffffffffffffffffffffffffffffffffffffff1673ffffffffffffffffffffffffffffffffffffffff168152602001908152602001600020549050818110156110d2576040517f08c379a00000000000000000000000000000000000000000000000000000000081526004016110c990611d5c565b60405180910390fd5b8181036000808573ffffffffffffffffffffffffffffffffffffffff1673ffffffffffffffffffffffffffffffffffffffff1681526020019081526020016000208190555081600260008282546111299190611d7c565b92505081905550600073ffffffffffffffffffffffffffffffffffffffff168373ffffffffffffffffffffffffffffffffffffffff167fddf252ad1be2c89b69c2b068fc378daa952ba7f163c4a11628f55a4df523b3ef8460405161118e919061138a565b60405180910390a36111a2836000846111ac565b505050565b505050565b505050565b600081519050919050565b600082825260208201905092915050565b60005b838110156111eb5780820151818401526020810190506111d0565b838111156111fa576000848401525b50505050565b6000601f19601f8301169050919050565b600061121c826111b1565b61122681856111bc565b93506112368185602086016111cd565b61123f81611200565b840191505092915050565b600060208201905081810360008301526112648184611211565b905092915050565b600080fd5b600073ffffffffffffffffffffffffffffffffffffffff82169050919050565b600061129c82611271565b9050919050565b6112ac81611291565b81146112b757600080fd5b50565b6000813590506112c9816112a3565b92915050565b6000819050919050565b6112e2816112cf565b81146112ed57600080fd5b50565b6000813590506112ff816112d9565b92915050565b6000806040838503121561131c5761131b61126c565b5b600061132a858286016112ba565b925050602061133b858286016112f0565b9150509250929050565b60008115159050919050565b61135a81611345565b82525050565b60006020820190506113756000830184611351565b92915050565b611384816112cf565b82525050565b600060208201905061139f600083018461137b565b92915050565b6000806000606084860312156113be576113bd61126c565b5b60006113cc868287016112ba565b93505060206113dd868287016112ba565b92505060406113ee868287016112f0565b9150509250925092565b600060ff82169050919050565b61140e816113f8565b82525050565b60006020820190506114296000830184611405565b92915050565b6000602082840312156114455761144461126c565b5b6000611453848285016112f0565b91505092915050565b6000602082840312156114725761147161126c565b5b6000611480848285016112ba565b91505092915050565b600080604083850312156114a05761149f61126c565b5b60006114ae858286016112ba565b92505060206114bf858286016112ba565b9150509250929050565b7f4e487b7100000000000000000000000000000000000000000000000000000000600052602260045260246000fd5b6000600282049050600182168061151057607f821691505b60208210811415611524576115236114c9565b5b50919050565b7f4e487b7100000000000000000000000000000000000000000000000000000000600052601160045260246000fd5b6000611564826112cf565b915061156f836112cf565b9250827fffffffffffffffffffffffffffffffffffffffffffffffffffffffffffffffff038211156115a4576115a361152a565b5b828201905092915050565b60006115ba826112cf565b91506115c5836112cf565b9250817fffffffffffffffffffffffffffffffffffffffffffffffffffffffffffffffff04831182151516156115fe576115fd61152a565b5b828202905092915050565b61161281611291565b82525050565b600060408201905061162d6000830185611609565b61163a6020830184611609565b9392505050565b600081519050611650816112d9565b92915050565b60006020828403121561166c5761166b61126c565b5b600061167a84828501611641565b91505092915050565b7f696e73756666696369656e745f544b4100000000000000000000000000000000600082015250565b60006116b96010836111bc565b91506116c482611683565b602082019050919050565b600060208201905081810360008301526116e8816116ac565b9050919050565b60006060820190506117046000830186611609565b6117116020830185611609565b61171e604083018461137b565b949350505050565b61172f81611345565b811461173a57600080fd5b50565b60008151905061174c81611726565b92915050565b6000602082840312156117685761176761126c565b5b60006117768482850161173d565b91505092915050565b7f45524332303a2064656372656173656420616c6c6f77616e63652062656c6f7760008201527f207a65726f000000000000000000000000000000000000000000000000000000602082015250565b60006117db6025836111bc565b91506117e68261177f565b604082019050919050565b6000602082019050818103600083015261180a816117ce565b9050919050565b7f696e73756666696369656e745f544b4200000000000000000000000000000000600082015250565b60006118476010836111bc565b915061185282611811565b602082019050919050565b600060208201905081810360008301526118768161183a565b9050919050565b60006040820190506118926000830185611609565b61189f602083018461137b565b9392505050565b7f45524332303a20617070726f76652066726f6d20746865207a65726f2061646460008201527f7265737300000000000000000000000000000000000000000000000000000000602082015250565b60006119026024836111bc565b915061190d826118a6565b604082019050919050565b60006020820190508181036000830152611931816118f5565b9050919050565b7f45524332303a20617070726f766520746f20746865207a65726f20616464726560008201527f7373000000000000000000000000000000000000000000000000000000000000602082015250565b60006119946022836111bc565b915061199f82611938565b604082019050919050565b600060208201905081810360008301526119c381611987565b9050919050565b7f45524332303a20696e73756666696369656e7420616c6c6f77616e6365000000600082015250565b6000611a00601d836111bc565b9150611a0b826119ca565b602082019050919050565b60006020820190508181036000830152611a2f816119f3565b9050919050565b7f45524332303a207472616e736665722066726f6d20746865207a65726f20616460008201527f6472657373000000000000000000000000000000000000000000000000000000602082015250565b6000611a926025836111bc565b9150611a9d82611a36565b604082019050919050565b60006020820190508181036000830152611ac181611a85565b9050919050565b7f45524332303a207472616e7366657220746f20746865207a65726f206164647260008201527f6573730000000000000000000000000000000000000000000000000000000000602082015250565b6000611b246023836111bc565b9150611b2f82611ac8565b604082019050919050565b60006020820190508181036000830152611b5381611b17565b9050919050565b7f45524332303a207472616e7366657220616d6f756e742065786365656473206260008201527f616c616e63650000000000000000000000000000000000000000000000000000602082015250565b6000611bb66026836111bc565b9150611bc182611b5a565b604082019050919050565b60006020820190508181036000830152611be581611ba9565b9050919050565b7f45524332303a206d696e7420746f20746865207a65726f206164647265737300600082015250565b6000611c22601f836111bc565b9150611c2d82611bec565b602082019050919050565b60006020820190508181036000830152611c5181611c15565b9050919050565b7f45524332303a206275726e2066726f6d20746865207a65726f2061646472657360008201527f7300000000000000000000000000000000000000000000000000000000000000602082015250565b6000611cb46021836111bc565b9150611cbf82611c58565b604082019050919050565b60006020820190508181036000830152611ce381611ca7565b9050919050565b7f45524332303a206275726e20616d6f756e7420657863656564732062616c616e60008201527f6365000000000000000000000000000000000000000000000000000000000000602082015250565b6000611d466022836111bc565b9150611d5182611cea565b604082019050919050565b60006020820190508181036000830152611d7581611d39565b9050919050565b6000611d87826112cf565b9150611d92836112cf565b925082821015611da557611da461152a565b5b82820390509291505056fea26469706673582212208d592a8eb7b962dbd63b7905b08a63e289c822f3895b88dc8e424f6a1424c39f64736f6c634300080b0033",
  "immutableReferences": {},
  "source": "\n// SPDX-License-Identifier: MIT\npragma solidity >=0.4.22;\n\nimport \"@openzeppelin/contracts/token/ERC20/ERC20.sol\";\n\n// Token B is a wrapped Token A\ncontract TokenB is ERC20 {\n    IERC20 underlying;\n\n    constructor(address underlyingTokenContractAddress) ERC20(\"Token B\", \"TKB\") {\n        underlying = IERC20(underlyingTokenContractAddress);\n    }\n\n    // Give an amount of Token B to sender\n    // amount is in the unit of Token B\n    function requestWrappedToken(uint256 amount) external {\n        require(underlying.allowance(msg.sender, address(this)) >= (amount * 2), \"insufficient_TKA\"); \n        underlying.transferFrom(msg.sender, address(this), amount * 2);\n        _mint(msg.sender, amount);\n    }\n\n    // Give back underlying to sender\n    // amount is in the unit of Token B\n    function unwrapTokenForUnderlying(uint256 amount) external {\n        require(balanceOf(msg.sender) >= amount, \"insufficient_TKB\"); \n        underlying.transfer(msg.sender, amount * 2);\n        _burn(msg.sender, amount);\n    }\n}\n\n// ERC20 Token Reference https://solidity-by-example.org/app/erc20/\n// Wrapping Reference https://www.youtube.com/watch?v=CHLgAgWoUvo",
  "sourcePath": "/Users/carsonyau/Documents/Learning/wraptoken/contracts/TokenB.sol",
  "compiler": {
    "name": "solc",
    "version": "0.8.11+commit.d7f03943.Emscripten.clang"
  },
  "schemaVersion": "3.4.4",
  "updatedAt": "2022-03-06T06:50:44.533Z",
  "networkType": "ethereum",
  "devdoc": {
    "kind": "dev",
    "methods": {
      "allowance(address,address)": {
        "details": "See {IERC20-allowance}."
      },
      "approve(address,uint256)": {
        "details": "See {IERC20-approve}. NOTE: If `amount` is the maximum `uint256`, the allowance is not updated on `transferFrom`. This is semantically equivalent to an infinite approval. Requirements: - `spender` cannot be the zero address."
      },
      "balanceOf(address)": {
        "details": "See {IERC20-balanceOf}."
      },
      "decimals()": {
        "details": "Returns the number of decimals used to get its user representation. For example, if `decimals` equals `2`, a balance of `505` tokens should be displayed to a user as `5.05` (`505 / 10 ** 2`). Tokens usually opt for a value of 18, imitating the relationship between Ether and Wei. This is the value {ERC20} uses, unless this function is overridden; NOTE: This information is only used for _display_ purposes: it in no way affects any of the arithmetic of the contract, including {IERC20-balanceOf} and {IERC20-transfer}."
      },
      "decreaseAllowance(address,uint256)": {
        "details": "Atomically decreases the allowance granted to `spender` by the caller. This is an alternative to {approve} that can be used as a mitigation for problems described in {IERC20-approve}. Emits an {Approval} event indicating the updated allowance. Requirements: - `spender` cannot be the zero address. - `spender` must have allowance for the caller of at least `subtractedValue`."
      },
      "increaseAllowance(address,uint256)": {
        "details": "Atomically increases the allowance granted to `spender` by the caller. This is an alternative to {approve} that can be used as a mitigation for problems described in {IERC20-approve}. Emits an {Approval} event indicating the updated allowance. Requirements: - `spender` cannot be the zero address."
      },
      "name()": {
        "details": "Returns the name of the token."
      },
      "symbol()": {
        "details": "Returns the symbol of the token, usually a shorter version of the name."
      },
      "totalSupply()": {
        "details": "See {IERC20-totalSupply}."
      },
      "transfer(address,uint256)": {
        "details": "See {IERC20-transfer}. Requirements: - `to` cannot be the zero address. - the caller must have a balance of at least `amount`."
      },
      "transferFrom(address,address,uint256)": {
        "details": "See {IERC20-transferFrom}. Emits an {Approval} event indicating the updated allowance. This is not required by the EIP. See the note at the beginning of {ERC20}. NOTE: Does not update the allowance if the current allowance is the maximum `uint256`. Requirements: - `from` and `to` cannot be the zero address. - `from` must have a balance of at least `amount`. - the caller must have allowance for ``from``'s tokens of at least `amount`."
      }
    },
    "version": 1
  },
  "userdoc": {
    "kind": "user",
    "methods": {},
    "version": 1
  }
}