{
  "contractName": "TokenB",
  "abi": [
    {
      "inputs": [
        {
          "internalType": "address",
          "name": "underlyingTokenContractAddress",
          "type": "address"
        }
      ],
      "stateMutability": "nonpayable",
      "type": "constructor"
    },
    {
      "anonymous": false,
      "inputs": [
        {
          "indexed": true,
          "internalType": "address",
          "name": "owner",
          "type": "address"
        },
        {
          "indexed": true,
          "internalType": "address",
          "name": "spender",
          "type": "address"
        },
        {
          "indexed": false,
          "internalType": "uint256",
          "name": "value",
          "type": "uint256"
        }
      ],
      "name": "Approval",
      "type": "event"
    },
    {
      "anonymous": false,
      "inputs": [
        {
          "indexed": true,
          "internalType": "address",
          "name": "from",
          "type": "address"
        },
        {
          "indexed": true,
          "internalType": "address",
          "name": "to",
          "type": "address"
        },
        {
          "indexed": false,
          "internalType": "uint256",
          "name": "value",
          "type": "uint256"
        }
      ],
      "name": "Transfer",
      "type": "event"
    },
    {
      "inputs": [
        {
          "internalType": "address",
          "name": "owner",
          "type": "address"
        },
        {
          "internalType": "address",
          "name": "spender",
          "type": "address"
        }
      ],
      "name": "allowance",
      "outputs": [
        {
          "internalType": "uint256",
          "name": "",
          "type": "uint256"
        }
      ],
      "stateMutability": "view",
      "type": "function",
      "constant": true
    },
    {
      "inputs": [
        {
          "internalType": "address",
          "name": "spender",
          "type": "address"
        },
        {
          "internalType": "uint256",
          "name": "amount",
          "type": "uint256"
        }
      ],
      "name": "approve",
      "outputs": [
        {
          "internalType": "bool",
          "name": "",
          "type": "bool"
        }
      ],
      "stateMutability": "nonpayable",
      "type": "function"
    },
    {
      "inputs": [
        {
          "internalType": "address",
          "name": "account",
          "type": "address"
        }
      ],
      "name": "balanceOf",
      "outputs": [
        {
          "internalType": "uint256",
          "name": "",
          "type": "uint256"
        }
      ],
      "stateMutability": "view",
      "type": "function",
      "constant": true
    },
    {
      "inputs": [],
      "name": "decimals",
      "outputs": [
        {
          "internalType": "uint8",
          "name": "",
          "type": "uint8"
        }
      ],
      "stateMutability": "view",
      "type": "function",
      "constant": true
    },
    {
      "inputs": [
        {
          "internalType": "address",
          "name": "spender",
          "type": "address"
        },
        {
          "internalType": "uint256",
          "name": "subtractedValue",
          "type": "uint256"
        }
      ],
      "name": "decreaseAllowance",
      "outputs": [
        {
          "internalType": "bool",
          "name": "",
          "type": "bool"
        }
      ],
      "stateMutability": "nonpayable",
      "type": "function"
    },
    {
      "inputs": [
        {
          "internalType": "address",
          "name": "spender",
          "type": "address"
        },
        {
          "internalType": "uint256",
          "name": "addedValue",
          "type": "uint256"
        }
      ],
      "name": "increaseAllowance",
      "outputs": [
        {
          "internalType": "bool",
          "name": "",
          "type": "bool"
        }
      ],
      "stateMutability": "nonpayable",
      "type": "function"
    },
    {
      "inputs": [],
      "name": "name",
      "outputs": [
        {
          "internalType": "string",
          "name": "",
          "type": "string"
        }
      ],
      "stateMutability": "view",
      "type": "function",
      "constant": true
    },
    {
      "inputs": [],
      "name": "symbol",
      "outputs": [
        {
          "internalType": "string",
          "name": "",
          "type": "string"
        }
      ],
      "stateMutability": "view",
      "type": "function",
      "constant": true
    },
    {
      "inputs": [],
      "name": "totalSupply",
      "outputs": [
        {
          "internalType": "uint256",
          "name": "",
          "type": "uint256"
        }
      ],
      "stateMutability": "view",
      "type": "function",
      "constant": true
    },
    {
      "inputs": [
        {
          "internalType": "address",
          "name": "to",
          "type": "address"
        },
        {
          "internalType": "uint256",
          "name": "amount",
          "type": "uint256"
        }
      ],
      "name": "transfer",
      "outputs": [
        {
          "internalType": "bool",
          "name": "",
          "type": "bool"
        }
      ],
      "stateMutability": "nonpayable",
      "type": "function"
    },
    {
      "inputs": [
        {
          "internalType": "address",
          "name": "from",
          "type": "address"
        },
        {
          "internalType": "address",
          "name": "to",
          "type": "address"
        },
        {
          "internalType": "uint256",
          "name": "amount",
          "type": "uint256"
        }
      ],
      "name": "transferFrom",
      "outputs": [
        {
          "internalType": "bool",
          "name": "",
          "type": "bool"
        }
      ],
      "stateMutability": "nonpayable",
      "type": "function"
    },
    {
      "inputs": [
        {
          "internalType": "uint256",
          "name": "amount",
          "type": "uint256"
        }
      ],
      "name": "requestWrappedToken",
      "outputs": [],
      "stateMutability": "payable",
      "type": "function",
      "payable": true
    },
    {
      "inputs": [
        {
          "internalType": "uint256",
          "name": "amount",
          "type": "uint256"
        }
      ],
      "name": "unwrapTokenForUnderlying",
      "outputs": [],
      "stateMutability": "nonpayable",
      "type": "function"
    }
  ],
  "bytecode": "0x60806040523480156200001157600080fd5b5060405162001edb38038062001edb833981810160405281019062000037919062000239565b6040518060400160405280600781526020017f546f6b656e2042000000000000000000000000000000000000000000000000008152506040518060400160405280600381526020017f544b4200000000000000000000000000000000000000000000000000000000008152508160039080519060200190620000bb9291906200011f565b508060049080519060200190620000d49291906200011f565b50505080600560006101000a81548173ffffffffffffffffffffffffffffffffffffffff021916908373ffffffffffffffffffffffffffffffffffffffff16021790555050620002d0565b8280546200012d906200029a565b90600052602060002090601f0160209004810192826200015157600085556200019d565b82601f106200016c57805160ff19168380011785556200019d565b828001600101855582156200019d579182015b828111156200019c5782518255916020019190600101906200017f565b5b509050620001ac9190620001b0565b5090565b5b80821115620001cb576000816000905550600101620001b1565b5090565b600080fd5b600073ffffffffffffffffffffffffffffffffffffffff82169050919050565b60006200020182620001d4565b9050919050565b6200021381620001f4565b81146200021f57600080fd5b50565b600081519050620002338162000208565b92915050565b600060208284031215620002525762000251620001cf565b5b6000620002628482850162000222565b91505092915050565b7f4e487b7100000000000000000000000000000000000000000000000000000000600052602260045260246000fd5b60006002820490506001821680620002b357607f821691505b60208210811415620002ca57620002c96200026b565b5b50919050565b611bfb80620002e06000396000f3fe6080604052600436106100c25760003560e01c806357ab6f1f1161007f578063a457c2d711610059578063a457c2d714610283578063a9059cbb146102c0578063b10fc3ca146102fd578063dd62ed3e14610326576100c2565b806357ab6f1f146101ff57806370a082311461021b57806395d89b4114610258576100c2565b806306fdde03146100c7578063095ea7b3146100f257806318160ddd1461012f57806323b872dd1461015a578063313ce5671461019757806339509351146101c2575b600080fd5b3480156100d357600080fd5b506100dc610363565b6040516100e991906111a2565b60405180910390f35b3480156100fe57600080fd5b506101196004803603810190610114919061125d565b6103f5565b60405161012691906112b8565b60405180910390f35b34801561013b57600080fd5b50610144610418565b60405161015191906112e2565b60405180910390f35b34801561016657600080fd5b50610181600480360381019061017c91906112fd565b610422565b60405161018e91906112b8565b60405180910390f35b3480156101a357600080fd5b506101ac610451565b6040516101b9919061136c565b60405180910390f35b3480156101ce57600080fd5b506101e960048036038101906101e4919061125d565b61045a565b6040516101f691906112b8565b60405180910390f35b61021960048036038101906102149190611387565b610504565b005b34801561022757600080fd5b50610242600480360381019061023d91906113b4565b6105c0565b60405161024f91906112e2565b60405180910390f35b34801561026457600080fd5b5061026d610608565b60405161027a91906111a2565b60405180910390f35b34801561028f57600080fd5b506102aa60048036038101906102a5919061125d565b61069a565b6040516102b791906112b8565b60405180910390f35b3480156102cc57600080fd5b506102e760048036038101906102e2919061125d565b610784565b6040516102f491906112b8565b60405180910390f35b34801561030957600080fd5b50610324600480360381019061031f9190611387565b6107a7565b005b34801561033257600080fd5b5061034d600480360381019061034891906113e1565b610861565b60405161035a91906112e2565b60405180910390f35b60606003805461037290611450565b80601f016020809104026020016040519081016040528092919081815260200182805461039e90611450565b80156103eb5780601f106103c0576101008083540402835291602001916103eb565b820191906000526020600020905b8154815290600101906020018083116103ce57829003601f168201915b5050505050905090565b6000806104006108e8565b905061040d8185856108f0565b600191505092915050565b6000600254905090565b60008061042d6108e8565b905061043a858285610abb565b610445858585610b47565b60019150509392505050565b60006012905090565b6000806104656108e8565b90506104f9818585600160008673ffffffffffffffffffffffffffffffffffffffff1673ffffffffffffffffffffffffffffffffffffffff16815260200190815260200160002060008973ffffffffffffffffffffffffffffffffffffffff1673ffffffffffffffffffffffffffffffffffffffff168152602001908152602001600020546104f491906114b1565b6108f0565b600191505092915050565b600560009054906101000a900473ffffffffffffffffffffffffffffffffffffffff1673ffffffffffffffffffffffffffffffffffffffff166323b872dd33306002856105519190611507565b6040518463ffffffff1660e01b815260040161056f93929190611570565b6020604051808303816000875af115801561058e573d6000803e3d6000fd5b505050506040513d601f19601f820116820180604052508101906105b291906115d3565b506105bd3382610dc8565b50565b60008060008373ffffffffffffffffffffffffffffffffffffffff1673ffffffffffffffffffffffffffffffffffffffff168152602001908152602001600020549050919050565b60606004805461061790611450565b80601f016020809104026020016040519081016040528092919081815260200182805461064390611450565b80156106905780601f1061066557610100808354040283529160200191610690565b820191906000526020600020905b81548152906001019060200180831161067357829003601f168201915b5050505050905090565b6000806106a56108e8565b90506000600160008373ffffffffffffffffffffffffffffffffffffffff1673ffffffffffffffffffffffffffffffffffffffff16815260200190815260200160002060008673ffffffffffffffffffffffffffffffffffffffff1673ffffffffffffffffffffffffffffffffffffffff1681526020019081526020016000205490508381101561076b576040517f08c379a000000000000000000000000000000000000000000000000000000000815260040161076290611672565b60405180910390fd5b61077882868684036108f0565b60019250505092915050565b60008061078f6108e8565b905061079c818585610b47565b600191505092915050565b600560009054906101000a900473ffffffffffffffffffffffffffffffffffffffff1673ffffffffffffffffffffffffffffffffffffffff1663a9059cbb336002846107f39190611507565b6040518363ffffffff1660e01b8152600401610810929190611692565b6020604051808303816000875af115801561082f573d6000803e3d6000fd5b505050506040513d601f19601f8201168201806040525081019061085391906115d3565b5061085e3382610f28565b50565b6000600160008473ffffffffffffffffffffffffffffffffffffffff1673ffffffffffffffffffffffffffffffffffffffff16815260200190815260200160002060008373ffffffffffffffffffffffffffffffffffffffff1673ffffffffffffffffffffffffffffffffffffffff16815260200190815260200160002054905092915050565b600033905090565b600073ffffffffffffffffffffffffffffffffffffffff168373ffffffffffffffffffffffffffffffffffffffff161415610960576040517f08c379a00000000000000000000000000000000000000000000000000000000081526004016109579061172d565b60405180910390fd5b600073ffffffffffffffffffffffffffffffffffffffff168273ffffffffffffffffffffffffffffffffffffffff1614156109d0576040517f08c379a00000000000000000000000000000000000000000000000000000000081526004016109c7906117bf565b60405180910390fd5b80600160008573ffffffffffffffffffffffffffffffffffffffff1673ffffffffffffffffffffffffffffffffffffffff16815260200190815260200160002060008473ffffffffffffffffffffffffffffffffffffffff1673ffffffffffffffffffffffffffffffffffffffff168152602001908152602001600020819055508173ffffffffffffffffffffffffffffffffffffffff168373ffffffffffffffffffffffffffffffffffffffff167f8c5be1e5ebec7d5bd14f71427d1e84f3dd0314c0f7b2291e5b200ac8c7c3b92583604051610aae91906112e2565b60405180910390a3505050565b6000610ac78484610861565b90507fffffffffffffffffffffffffffffffffffffffffffffffffffffffffffffffff8114610b415781811015610b33576040517f08c379a0000000000000000000000000000000000000000000000000000000008152600401610b2a9061182b565b60405180910390fd5b610b4084848484036108f0565b5b50505050565b600073ffffffffffffffffffffffffffffffffffffffff168373ffffffffffffffffffffffffffffffffffffffff161415610bb7576040517f08c379a0000000000000000000000000000000000000000000000000000000008152600401610bae906118bd565b60405180910390fd5b600073ffffffffffffffffffffffffffffffffffffffff168273ffffffffffffffffffffffffffffffffffffffff161415610c27576040517f08c379a0000000000000000000000000000000000000000000000000000000008152600401610c1e9061194f565b60405180910390fd5b610c328383836110ff565b60008060008573ffffffffffffffffffffffffffffffffffffffff1673ffffffffffffffffffffffffffffffffffffffff16815260200190815260200160002054905081811015610cb8576040517f08c379a0000000000000000000000000000000000000000000000000000000008152600401610caf906119e1565b60405180910390fd5b8181036000808673ffffffffffffffffffffffffffffffffffffffff1673ffffffffffffffffffffffffffffffffffffffff16815260200190815260200160002081905550816000808573ffffffffffffffffffffffffffffffffffffffff1673ffffffffffffffffffffffffffffffffffffffff1681526020019081526020016000206000828254610d4b91906114b1565b925050819055508273ffffffffffffffffffffffffffffffffffffffff168473ffffffffffffffffffffffffffffffffffffffff167fddf252ad1be2c89b69c2b068fc378daa952ba7f163c4a11628f55a4df523b3ef84604051610daf91906112e2565b60405180910390a3610dc2848484611104565b50505050565b600073ffffffffffffffffffffffffffffffffffffffff168273ffffffffffffffffffffffffffffffffffffffff161415610e38576040517f08c379a0000000000000000000000000000000000000000000000000000000008152600401610e2f90611a4d565b60405180910390fd5b610e44600083836110ff565b8060026000828254610e5691906114b1565b92505081905550806000808473ffffffffffffffffffffffffffffffffffffffff1673ffffffffffffffffffffffffffffffffffffffff1681526020019081526020016000206000828254610eab91906114b1565b925050819055508173ffffffffffffffffffffffffffffffffffffffff16600073ffffffffffffffffffffffffffffffffffffffff167fddf252ad1be2c89b69c2b068fc378daa952ba7f163c4a11628f55a4df523b3ef83604051610f1091906112e2565b60405180910390a3610f2460008383611104565b5050565b600073ffffffffffffffffffffffffffffffffffffffff168273ffffffffffffffffffffffffffffffffffffffff161415610f98576040517f08c379a0000000000000000000000000000000000000000000000000000000008152600401610f8f90611adf565b60405180910390fd5b610fa4826000836110ff565b60008060008473ffffffffffffffffffffffffffffffffffffffff1673ffffffffffffffffffffffffffffffffffffffff1681526020019081526020016000205490508181101561102a576040517f08c379a000000000000000000000000000000000000000000000000000000000815260040161102190611b71565b60405180910390fd5b8181036000808573ffffffffffffffffffffffffffffffffffffffff1673ffffffffffffffffffffffffffffffffffffffff1681526020019081526020016000208190555081600260008282546110819190611b91565b92505081905550600073ffffffffffffffffffffffffffffffffffffffff168373ffffffffffffffffffffffffffffffffffffffff167fddf252ad1be2c89b69c2b068fc378daa952ba7f163c4a11628f55a4df523b3ef846040516110e691906112e2565b60405180910390a36110fa83600084611104565b505050565b505050565b505050565b600081519050919050565b600082825260208201905092915050565b60005b83811015611143578082015181840152602081019050611128565b83811115611152576000848401525b50505050565b6000601f19601f8301169050919050565b600061117482611109565b61117e8185611114565b935061118e818560208601611125565b61119781611158565b840191505092915050565b600060208201905081810360008301526111bc8184611169565b905092915050565b600080fd5b600073ffffffffffffffffffffffffffffffffffffffff82169050919050565b60006111f4826111c9565b9050919050565b611204816111e9565b811461120f57600080fd5b50565b600081359050611221816111fb565b92915050565b6000819050919050565b61123a81611227565b811461124557600080fd5b50565b60008135905061125781611231565b92915050565b60008060408385031215611274576112736111c4565b5b600061128285828601611212565b925050602061129385828601611248565b9150509250929050565b60008115159050919050565b6112b28161129d565b82525050565b60006020820190506112cd60008301846112a9565b92915050565b6112dc81611227565b82525050565b60006020820190506112f760008301846112d3565b92915050565b600080600060608486031215611316576113156111c4565b5b600061132486828701611212565b935050602061133586828701611212565b925050604061134686828701611248565b9150509250925092565b600060ff82169050919050565b61136681611350565b82525050565b6000602082019050611381600083018461135d565b92915050565b60006020828403121561139d5761139c6111c4565b5b60006113ab84828501611248565b91505092915050565b6000602082840312156113ca576113c96111c4565b5b60006113d884828501611212565b91505092915050565b600080604083850312156113f8576113f76111c4565b5b600061140685828601611212565b925050602061141785828601611212565b9150509250929050565b7f4e487b7100000000000000000000000000000000000000000000000000000000600052602260045260246000fd5b6000600282049050600182168061146857607f821691505b6020821081141561147c5761147b611421565b5b50919050565b7f4e487b7100000000000000000000000000000000000000000000000000000000600052601160045260246000fd5b60006114bc82611227565b91506114c783611227565b9250827fffffffffffffffffffffffffffffffffffffffffffffffffffffffffffffffff038211156114fc576114fb611482565b5b828201905092915050565b600061151282611227565b915061151d83611227565b9250817fffffffffffffffffffffffffffffffffffffffffffffffffffffffffffffffff048311821515161561155657611555611482565b5b828202905092915050565b61156a816111e9565b82525050565b60006060820190506115856000830186611561565b6115926020830185611561565b61159f60408301846112d3565b949350505050565b6115b08161129d565b81146115bb57600080fd5b50565b6000815190506115cd816115a7565b92915050565b6000602082840312156115e9576115e86111c4565b5b60006115f7848285016115be565b91505092915050565b7f45524332303a2064656372656173656420616c6c6f77616e63652062656c6f7760008201527f207a65726f000000000000000000000000000000000000000000000000000000602082015250565b600061165c602583611114565b915061166782611600565b604082019050919050565b6000602082019050818103600083015261168b8161164f565b9050919050565b60006040820190506116a76000830185611561565b6116b460208301846112d3565b9392505050565b7f45524332303a20617070726f76652066726f6d20746865207a65726f2061646460008201527f7265737300000000000000000000000000000000000000000000000000000000602082015250565b6000611717602483611114565b9150611722826116bb565b604082019050919050565b600060208201905081810360008301526117468161170a565b9050919050565b7f45524332303a20617070726f766520746f20746865207a65726f20616464726560008201527f7373000000000000000000000000000000000000000000000000000000000000602082015250565b60006117a9602283611114565b91506117b48261174d565b604082019050919050565b600060208201905081810360008301526117d88161179c565b9050919050565b7f45524332303a20696e73756666696369656e7420616c6c6f77616e6365000000600082015250565b6000611815601d83611114565b9150611820826117df565b602082019050919050565b6000602082019050818103600083015261184481611808565b9050919050565b7f45524332303a207472616e736665722066726f6d20746865207a65726f20616460008201527f6472657373000000000000000000000000000000000000000000000000000000602082015250565b60006118a7602583611114565b91506118b28261184b565b604082019050919050565b600060208201905081810360008301526118d68161189a565b9050919050565b7f45524332303a207472616e7366657220746f20746865207a65726f206164647260008201527f6573730000000000000000000000000000000000000000000000000000000000602082015250565b6000611939602383611114565b9150611944826118dd565b604082019050919050565b600060208201905081810360008301526119688161192c565b9050919050565b7f45524332303a207472616e7366657220616d6f756e742065786365656473206260008201527f616c616e63650000000000000000000000000000000000000000000000000000602082015250565b60006119cb602683611114565b91506119d68261196f565b604082019050919050565b600060208201905081810360008301526119fa816119be565b9050919050565b7f45524332303a206d696e7420746f20746865207a65726f206164647265737300600082015250565b6000611a37601f83611114565b9150611a4282611a01565b602082019050919050565b60006020820190508181036000830152611a6681611a2a565b9050919050565b7f45524332303a206275726e2066726f6d20746865207a65726f2061646472657360008201527f7300000000000000000000000000000000000000000000000000000000000000602082015250565b6000611ac9602183611114565b9150611ad482611a6d565b604082019050919050565b60006020820190508181036000830152611af881611abc565b9050919050565b7f45524332303a206275726e20616d6f756e7420657863656564732062616c616e60008201527f6365000000000000000000000000000000000000000000000000000000000000602082015250565b6000611b5b602283611114565b9150611b6682611aff565b604082019050919050565b60006020820190508181036000830152611b8a81611b4e565b9050919050565b6000611b9c82611227565b9150611ba783611227565b925082821015611bba57611bb9611482565b5b82820390509291505056fea26469706673582212202cd21459e340fc7eb1f01ccf5b86cb03986afa054244a7a02f2d841443aabce364736f6c634300080b0033",
  "immutableReferences": {},
  "source": "\n// SPDX-License-Identifier: MIT\npragma solidity >=0.8.10;\n\nimport \"@openzeppelin/contracts/token/ERC20/ERC20.sol\";\n\n// Token B is a wrapped Token A\ncontract TokenB is ERC20 {\n    ERC20 underlying;\n\n    constructor(address underlyingTokenContractAddress) ERC20(\"Token B\", \"TKB\") {\n        underlying = ERC20(underlyingTokenContractAddress);\n    }\n\n    // Give an amount of Token B to sender\n    // amount is in the unit of Token B\n    function requestWrappedToken(uint amount) external payable {\n        underlying.transferFrom(msg.sender, address(this), amount * 2);\n        _mint(msg.sender, amount);\n    }\n\n    // Give back underlying to sender\n    // amount is in the unit of Token B\n    function unwrapTokenForUnderlying(uint amount) external {\n        underlying.transfer(msg.sender, amount * 2);\n        _burn(msg.sender, amount);\n    }\n}\n\n// ERC20 Token Reference https://solidity-by-example.org/app/erc20/\n// Wrapping Reference https://www.youtube.com/watch?v=CHLgAgWoUvo",
  "sourcePath": "/Users/carsonyau/Documents/Learning/wraptoken/contracts/TokenB.sol",
  "compiler": {
    "name": "solc",
    "version": "0.8.11+commit.d7f03943.Emscripten.clang"
  },
  "schemaVersion": "3.4.4",
  "updatedAt": "2022-03-05T04:26:51.647Z",
  "networkType": "ethereum",
  "devdoc": {
    "kind": "dev",
    "methods": {
      "allowance(address,address)": {
        "details": "See {IERC20-allowance}."
      },
      "approve(address,uint256)": {
        "details": "See {IERC20-approve}. NOTE: If `amount` is the maximum `uint256`, the allowance is not updated on `transferFrom`. This is semantically equivalent to an infinite approval. Requirements: - `spender` cannot be the zero address."
      },
      "balanceOf(address)": {
        "details": "See {IERC20-balanceOf}."
      },
      "decimals()": {
        "details": "Returns the number of decimals used to get its user representation. For example, if `decimals` equals `2`, a balance of `505` tokens should be displayed to a user as `5.05` (`505 / 10 ** 2`). Tokens usually opt for a value of 18, imitating the relationship between Ether and Wei. This is the value {ERC20} uses, unless this function is overridden; NOTE: This information is only used for _display_ purposes: it in no way affects any of the arithmetic of the contract, including {IERC20-balanceOf} and {IERC20-transfer}."
      },
      "decreaseAllowance(address,uint256)": {
        "details": "Atomically decreases the allowance granted to `spender` by the caller. This is an alternative to {approve} that can be used as a mitigation for problems described in {IERC20-approve}. Emits an {Approval} event indicating the updated allowance. Requirements: - `spender` cannot be the zero address. - `spender` must have allowance for the caller of at least `subtractedValue`."
      },
      "increaseAllowance(address,uint256)": {
        "details": "Atomically increases the allowance granted to `spender` by the caller. This is an alternative to {approve} that can be used as a mitigation for problems described in {IERC20-approve}. Emits an {Approval} event indicating the updated allowance. Requirements: - `spender` cannot be the zero address."
      },
      "name()": {
        "details": "Returns the name of the token."
      },
      "symbol()": {
        "details": "Returns the symbol of the token, usually a shorter version of the name."
      },
      "totalSupply()": {
        "details": "See {IERC20-totalSupply}."
      },
      "transfer(address,uint256)": {
        "details": "See {IERC20-transfer}. Requirements: - `to` cannot be the zero address. - the caller must have a balance of at least `amount`."
      },
      "transferFrom(address,address,uint256)": {
        "details": "See {IERC20-transferFrom}. Emits an {Approval} event indicating the updated allowance. This is not required by the EIP. See the note at the beginning of {ERC20}. NOTE: Does not update the allowance if the current allowance is the maximum `uint256`. Requirements: - `from` and `to` cannot be the zero address. - `from` must have a balance of at least `amount`. - the caller must have allowance for ``from``'s tokens of at least `amount`."
      }
    },
    "version": 1
  },
  "userdoc": {
    "kind": "user",
    "methods": {},
    "version": 1
  }
}